{
  "_format": "hh-sol-artifact-1",
  "contractName": "TokenSwap",
  "sourceName": "contracts/TokenSwap.sol",
  "abi": [
    {
      "inputs": [
        {
          "internalType": "address",
          "name": "_tokenA",
          "type": "address"
        },
        {
          "internalType": "address",
          "name": "_tokenB",
          "type": "address"
        }
      ],
      "stateMutability": "nonpayable",
      "type": "constructor"
    },
    {
      "inputs": [],
      "name": "owner",
      "outputs": [
        {
          "internalType": "address",
          "name": "",
          "type": "address"
        }
      ],
      "stateMutability": "view",
      "type": "function"
    },
    {
      "inputs": [
        {
          "internalType": "uint256",
          "name": "amount",
          "type": "uint256"
        }
      ],
      "name": "swapAtoB",
      "outputs": [],
      "stateMutability": "nonpayable",
      "type": "function"
    },
    {
      "inputs": [
        {
          "internalType": "uint256",
          "name": "amount",
          "type": "uint256"
        }
      ],
      "name": "swapBtoA",
      "outputs": [],
      "stateMutability": "nonpayable",
      "type": "function"
    },
    {
      "inputs": [],
      "name": "tokenA",
      "outputs": [
        {
          "internalType": "contract IERC20",
          "name": "",
          "type": "address"
        }
      ],
      "stateMutability": "view",
      "type": "function"
    },
    {
      "inputs": [],
      "name": "tokenB",
      "outputs": [
        {
          "internalType": "contract IERC20",
          "name": "",
          "type": "address"
        }
      ],
      "stateMutability": "view",
      "type": "function"
    }
  ],
  "bytecode": "0x608060405234801561001057600080fd5b506040516109be3803806109be8339818101604052810190610032919061015e565b816000806101000a81548173ffffffffffffffffffffffffffffffffffffffff021916908373ffffffffffffffffffffffffffffffffffffffff16021790555080600160006101000a81548173ffffffffffffffffffffffffffffffffffffffff021916908373ffffffffffffffffffffffffffffffffffffffff16021790555033600260006101000a81548173ffffffffffffffffffffffffffffffffffffffff021916908373ffffffffffffffffffffffffffffffffffffffff160217905550505061019e565b600080fd5b600073ffffffffffffffffffffffffffffffffffffffff82169050919050565b600061012b82610100565b9050919050565b61013b81610120565b811461014657600080fd5b50565b60008151905061015881610132565b92915050565b60008060408385031215610175576101746100fb565b5b600061018385828601610149565b925050602061019485828601610149565b9150509250929050565b610811806101ad6000396000f3fe608060405234801561001057600080fd5b50600436106100575760003560e01c80630fc63d101461005c5780635f64b55b1461007a5780638da5cb5b14610098578063da0d6735146100b6578063e0441df0146100d2575b600080fd5b6100646100ee565b604051610071919061055f565b60405180910390f35b610082610112565b60405161008f919061055f565b60405180910390f35b6100a0610138565b6040516100ad919061059b565b60405180910390f35b6100d060048036038101906100cb91906105f1565b61015e565b005b6100ec60048036038101906100e791906105f1565b61031f565b005b60008054906101000a900473ffffffffffffffffffffffffffffffffffffffff1681565b600160009054906101000a900473ffffffffffffffffffffffffffffffffffffffff1681565b600260009054906101000a900473ffffffffffffffffffffffffffffffffffffffff1681565b60008054906101000a900473ffffffffffffffffffffffffffffffffffffffff1673ffffffffffffffffffffffffffffffffffffffff166323b872dd3330846040518463ffffffff1660e01b81526004016101bb9392919061062d565b6020604051808303816000875af11580156101da573d6000803e3d6000fd5b505050506040513d601f19601f820116820180604052508101906101fe919061069c565b61023d576040517f08c379a000000000000000000000000000000000000000000000000000000000815260040161023490610726565b60405180910390fd5b600160009054906101000a900473ffffffffffffffffffffffffffffffffffffffff1673ffffffffffffffffffffffffffffffffffffffff1663a9059cbb33836040518363ffffffff1660e01b815260040161029a929190610746565b6020604051808303816000875af11580156102b9573d6000803e3d6000fd5b505050506040513d601f19601f820116820180604052508101906102dd919061069c565b61031c576040517f08c379a0000000000000000000000000000000000000000000000000000000008152600401610313906107bb565b60405180910390fd5b50565b600160009054906101000a900473ffffffffffffffffffffffffffffffffffffffff1673ffffffffffffffffffffffffffffffffffffffff166323b872dd3330846040518463ffffffff1660e01b815260040161037e9392919061062d565b6020604051808303816000875af115801561039d573d6000803e3d6000fd5b505050506040513d601f19601f820116820180604052508101906103c1919061069c565b610400576040517f08c379a00000000000000000000000000000000000000000000000000000000081526004016103f7906107bb565b60405180910390fd5b60008054906101000a900473ffffffffffffffffffffffffffffffffffffffff1673ffffffffffffffffffffffffffffffffffffffff1663a9059cbb33836040518363ffffffff1660e01b815260040161045b929190610746565b6020604051808303816000875af115801561047a573d6000803e3d6000fd5b505050506040513d601f19601f8201168201806040525081019061049e919061069c565b6104dd576040517f08c379a00000000000000000000000000000000000000000000000000000000081526004016104d490610726565b60405180910390fd5b50565b600073ffffffffffffffffffffffffffffffffffffffff82169050919050565b6000819050919050565b600061052561052061051b846104e0565b610500565b6104e0565b9050919050565b60006105378261050a565b9050919050565b60006105498261052c565b9050919050565b6105598161053e565b82525050565b60006020820190506105746000830184610550565b92915050565b6000610585826104e0565b9050919050565b6105958161057a565b82525050565b60006020820190506105b0600083018461058c565b92915050565b600080fd5b6000819050919050565b6105ce816105bb565b81146105d957600080fd5b50565b6000813590506105eb816105c5565b92915050565b600060208284031215610607576106066105b6565b5b6000610615848285016105dc565b91505092915050565b610627816105bb565b82525050565b6000606082019050610642600083018661058c565b61064f602083018561058c565b61065c604083018461061e565b949350505050565b60008115159050919050565b61067981610664565b811461068457600080fd5b50565b60008151905061069681610670565b92915050565b6000602082840312156106b2576106b16105b6565b5b60006106c084828501610687565b91505092915050565b600082825260208201905092915050565b7f5472616e73666572206f6620546f6b656e41206661696c656400000000000000600082015250565b60006107106019836106c9565b915061071b826106da565b602082019050919050565b6000602082019050818103600083015261073f81610703565b9050919050565b600060408201905061075b600083018561058c565b610768602083018461061e565b9392505050565b7f5472616e73666572206f6620546f6b656e42206661696c656400000000000000600082015250565b60006107a56019836106c9565b91506107b08261076f565b602082019050919050565b600060208201905081810360008301526107d481610798565b905091905056fea2646970667358221220d2f32f51a59145efb2f0bfb44a3b699d8fc14b712eac8a19f87cd5b8aa8ea06864736f6c634300081c0033",
  "linkReferences": {},
  "deployedLinkReferences": {}
}